{
  "contractName": "Logic",
  "abi": [
    {
      "constant": true,
      "inputs": [],
      "name": "_proxyStorageAddress",
      "outputs": [
        {
          "name": "",
          "type": "address"
        }
      ],
      "payable": false,
      "stateMutability": "view",
      "type": "function"
    },
    {
      "constant": false,
      "inputs": [
        {
          "name": "recipient",
          "type": "address"
        },
        {
          "name": "amount",
          "type": "uint256"
        }
      ],
      "name": "feeFreeSend",
      "outputs": [],
      "payable": false,
      "stateMutability": "nonpayable",
      "type": "function"
    },
    {
      "constant": false,
      "inputs": [
        {
          "name": "recipient",
          "type": "address"
        },
        {
          "name": "amount",
          "type": "uint256"
        }
      ],
      "name": "feeSend",
      "outputs": [],
      "payable": true,
      "stateMutability": "payable",
      "type": "function"
    }
  ],
  "bytecode": "0x608060405234801561001057600080fd5b50610868806100206000396000f300608060405260043610610057576000357c0100000000000000000000000000000000000000000000000000000000900463ffffffff1680632c39d0701461005c57806338df1ea4146100a95780639ed99fc9146100e9575b600080fd5b34801561006857600080fd5b506100a7600480360381019080803573ffffffffffffffffffffffffffffffffffffffff16906020019092919080359060200190929190505050610140565b005b6100e7600480360381019080803573ffffffffffffffffffffffffffffffffffffffff1690602001909291908035906020019092919050505061031c565b005b3480156100f557600080fd5b506100fe610817565b604051808273ffffffffffffffffffffffffffffffffffffffff1673ffffffffffffffffffffffffffffffffffffffff16815260200191505060405180910390f35b60008060009054906101000a900473ffffffffffffffffffffffffffffffffffffffff1673ffffffffffffffffffffffffffffffffffffffff166310fe9ae86040518163ffffffff167c0100000000000000000000000000000000000000000000000000000000028152600401602060405180830381600087803b1580156101c757600080fd5b505af11580156101db573d6000803e3d6000fd5b505050506040513d60208110156101f157600080fd5b810190808051906020019092919050505090508073ffffffffffffffffffffffffffffffffffffffff166323b872dd3385856040518463ffffffff167c0100000000000000000000000000000000000000000000000000000000028152600401808473ffffffffffffffffffffffffffffffffffffffff1673ffffffffffffffffffffffffffffffffffffffff1681526020018373ffffffffffffffffffffffffffffffffffffffff1673ffffffffffffffffffffffffffffffffffffffff1681526020018281526020019350505050602060405180830381600087803b1580156102db57600080fd5b505af11580156102ef573d6000803e3d6000fd5b505050506040513d602081101561030557600080fd5b810190808051906020019092919050505050505050565b600060606000806000809054906101000a900473ffffffffffffffffffffffffffffffffffffffff1673ffffffffffffffffffffffffffffffffffffffff166310fe9ae86040518163ffffffff167c0100000000000000000000000000000000000000000000000000000000028152600401602060405180830381600087803b1580156103a857600080fd5b505af11580156103bc573d6000803e3d6000fd5b505050506040513d60208110156103d257600080fd5b810190808051906020019092919050505093506000809054906101000a900473ffffffffffffffffffffffffffffffffffffffff1673ffffffffffffffffffffffffffffffffffffffff16632671c1fd6040518163ffffffff167c0100000000000000000000000000000000000000000000000000000000028152600401600060405180830381600087803b15801561046a57600080fd5b505af115801561047e573d6000803e3d6000fd5b505050506040513d6000823e3d601f19601f8201168201806040525060208110156104a857600080fd5b8101908080516401000000008111156104c057600080fd5b828101905060208101848111156104d657600080fd5b81518560208202830111640100000000821117156104f357600080fd5b505092919050505092508373ffffffffffffffffffffffffffffffffffffffff166323b872dd3388886040518463ffffffff167c0100000000000000000000000000000000000000000000000000000000028152600401808473ffffffffffffffffffffffffffffffffffffffff1673ffffffffffffffffffffffffffffffffffffffff1681526020018373ffffffffffffffffffffffffffffffffffffffff1673ffffffffffffffffffffffffffffffffffffffff1681526020018281526020019350505050602060405180830381600087803b1580156105d457600080fd5b505af11580156105e8573d6000803e3d6000fd5b505050506040513d60208110156105fe57600080fd5b8101908080519060200190929190505050506000809054906101000a900473ffffffffffffffffffffffffffffffffffffffff1673ffffffffffffffffffffffffffffffffffffffff1663d5f8f30e6040518163ffffffff167c0100000000000000000000000000000000000000000000000000000000028152600401602060405180830381600087803b15801561069557600080fd5b505af11580156106a9573d6000803e3d6000fd5b505050506040513d60208110156106bf57600080fd5b81019080805190602001909291905050509150600090505b818160ff16101561080f57828160ff168151811015156106f357fe5b9060200190602002015173ffffffffffffffffffffffffffffffffffffffff166108fc6000809054906101000a900473ffffffffffffffffffffffffffffffffffffffff1673ffffffffffffffffffffffffffffffffffffffff1663209652556040518163ffffffff167c0100000000000000000000000000000000000000000000000000000000028152600401602060405180830381600087803b15801561079b57600080fd5b505af11580156107af573d6000803e3d6000fd5b505050506040513d60208110156107c557600080fd5b81019080805190602001909291905050509081150290604051600060405180830381858888f19350505050158015610801573d6000803e3d6000fd5b5080806001019150506106d7565b505050505050565b6000809054906101000a900473ffffffffffffffffffffffffffffffffffffffff16815600a165627a7a72305820e912f6a486656ae6d4632fca163094c3cc3b642d3a1cbbc077959bbdda8443070029",
  "source": "pragma solidity ^0.4.24;\n\nimport \"./HotDogToken.sol\";\nimport \"./ProxyStorage.sol\";\n\ncontract Logic {\n\n    address public _proxyStorageAddress;\n\n    // function multiSend(address recipient, address other1, address other2, uint256 amount) public payable returns(bool) {\n    //     address _tokenAddress = ProxyStorage(_proxyStorageAddress).getTokenAddress();\n    //     require(_tokenAddress != address(0), \"zero address\");\n    //     (bool success) = address(_tokenAddress).call(abi.encodeWithSignature(\"transfer(address,uint256)\", recipient, amount));\n    //     other1.transfer(ProxyStorage(_proxyStorageAddress).eth);\n    //     other2.transfer(ProxyStorage(_proxyStorageAddress).eth);\n    //     if(!success) {\n    //         revert(\"wrong\");\n    //     }\n\n    //     return (success);\n    // }\n\n    function feeFreeSend(address recipient, uint256 amount) public {\n        address _tokenAddress = ProxyStorage(_proxyStorageAddress).getTokenAddress();\n        HotDogToken(_tokenAddress).transferFrom(msg.sender, recipient, amount);\n    }\n\n    function feeSend(address recipient, uint256 amount) public payable {\n        address _tokenAddress = ProxyStorage(_proxyStorageAddress).getTokenAddress();\n        address[] memory _god = ProxyStorage(_proxyStorageAddress).getGods();\n        HotDogToken(_tokenAddress).transferFrom(msg.sender, recipient, amount);\n        uint256 length = ProxyStorage(_proxyStorageAddress).getNumGod();\n        for(uint8 i=0; i<length; i++) {\n            _god[i].transfer(ProxyStorage(_proxyStorageAddress).getValue());\n        }\n    }\n}",
  "sourcePath": "/Users/jang-yonghyeon/workspace/blockchain/klaytn/hotdog_token_ver2/contracts/Logic.sol",
  "compiler": {
    "name": "solc",
    "version": "0.4.25+commit.59dbf8f1.Emscripten.clang"
  },
  "schemaVersion": "2.0.2",
  "updatedAt": "2019-07-26T05:11:08.133Z"
}