{
  "contractName": "Logic",
  "abi": [
    {
      "constant": false,
      "inputs": [
        {
          "name": "newOwner",
          "type": "address"
        }
      ],
      "name": "changeOwner",
      "outputs": [],
      "payable": false,
      "stateMutability": "nonpayable",
      "type": "function"
    },
    {
      "constant": false,
      "inputs": [
        {
          "name": "recipient",
          "type": "address"
        },
        {
          "name": "other1",
          "type": "address"
        },
        {
          "name": "other2",
          "type": "address"
        },
        {
          "name": "amount",
          "type": "uint256"
        }
      ],
      "name": "multiSend",
      "outputs": [
        {
          "name": "",
          "type": "bool"
        }
      ],
      "payable": true,
      "stateMutability": "payable",
      "type": "function"
    },
    {
      "constant": false,
      "inputs": [
        {
          "name": "recipient",
          "type": "address"
        },
        {
          "name": "amount",
          "type": "uint256"
        }
      ],
      "name": "send",
      "outputs": [],
      "payable": false,
      "stateMutability": "nonpayable",
      "type": "function"
    }
  ],
  "bytecode": "0x608060405266038d7ea4c680006002556000600460006101000a81548160ff021916908315150217905550336000806101000a81548173ffffffffffffffffffffffffffffffffffffffff021916908373ffffffffffffffffffffffffffffffffffffffff1602179055506107df806100796000396000f300608060405260043610610057576000357c0100000000000000000000000000000000000000000000000000000000900463ffffffff1680636a0040191461005c578063a6f9dae1146100f4578063d0679d3414610137575b600080fd5b6100da600480360381019080803573ffffffffffffffffffffffffffffffffffffffff169060200190929190803573ffffffffffffffffffffffffffffffffffffffff169060200190929190803573ffffffffffffffffffffffffffffffffffffffff16906020019092919080359060200190929190505050610184565b604051808215151515815260200191505060405180910390f35b34801561010057600080fd5b50610135600480360381019080803573ffffffffffffffffffffffffffffffffffffffff1690602001909291905050506104cd565b005b34801561014357600080fd5b50610182600480360381019080803573ffffffffffffffffffffffffffffffffffffffff1690602001909291908035906020019092919050505061067a565b005b600080600073ffffffffffffffffffffffffffffffffffffffff16600160009054906101000a900473ffffffffffffffffffffffffffffffffffffffff1673ffffffffffffffffffffffffffffffffffffffff161415151561024e576040517f08c379a000000000000000000000000000000000000000000000000000000000815260040180806020018281038252600c8152602001807f7a65726f2061646472657373000000000000000000000000000000000000000081525060200191505060405180910390fd5b600160009054906101000a900473ffffffffffffffffffffffffffffffffffffffff1673ffffffffffffffffffffffffffffffffffffffff168684604051602401808373ffffffffffffffffffffffffffffffffffffffff1673ffffffffffffffffffffffffffffffffffffffff168152602001828152602001925050506040516020818303038152906040527fa9059cbb000000000000000000000000000000000000000000000000000000007bffffffffffffffffffffffffffffffffffffffffffffffffffffffff19166020820180517bffffffffffffffffffffffffffffffffffffffffffffffffffffffff838183161783525050505060405180828051906020019080838360005b8381101561037657808201518184015260208101905061035b565b50505050905090810190601f1680156103a35780820380516001836020036101000a031916815260200191505b509150506000604051808303816000865af191505090508473ffffffffffffffffffffffffffffffffffffffff166108fc6002549081150290604051600060405180830381858888f19350505050158015610402573d6000803e3d6000fd5b508373ffffffffffffffffffffffffffffffffffffffff166108fc6002549081150290604051600060405180830381858888f1935050505015801561044b573d6000803e3d6000fd5b508015156104c1576040517f08c379a00000000000000000000000000000000000000000000000000000000081526004018080602001828103825260058152602001807f77726f6e6700000000000000000000000000000000000000000000000000000081525060200191505060405180910390fd5b80915050949350505050565b6000809054906101000a900473ffffffffffffffffffffffffffffffffffffffff1673ffffffffffffffffffffffffffffffffffffffff163373ffffffffffffffffffffffffffffffffffffffff1614151515610592576040517f08c379a00000000000000000000000000000000000000000000000000000000081526004018080602001828103825260098152602001807f6e6f74206f776e6572000000000000000000000000000000000000000000000081525060200191505060405180910390fd5b600073ffffffffffffffffffffffffffffffffffffffff168173ffffffffffffffffffffffffffffffffffffffff1614151515610637576040517f08c379a000000000000000000000000000000000000000000000000000000000815260040180806020018281038252600c8152602001807f7a65726f2061646472657373000000000000000000000000000000000000000081525060200191505060405180910390fd5b806000806101000a81548173ffffffffffffffffffffffffffffffffffffffff021916908373ffffffffffffffffffffffffffffffffffffffff16021790555050565b600160009054906101000a900473ffffffffffffffffffffffffffffffffffffffff1673ffffffffffffffffffffffffffffffffffffffff166323b872dd3384846040518463ffffffff167c0100000000000000000000000000000000000000000000000000000000028152600401808473ffffffffffffffffffffffffffffffffffffffff1673ffffffffffffffffffffffffffffffffffffffff1681526020018373ffffffffffffffffffffffffffffffffffffffff1673ffffffffffffffffffffffffffffffffffffffff1681526020018281526020019350505050602060405180830381600087803b15801561077357600080fd5b505af1158015610787573d6000803e3d6000fd5b505050506040513d602081101561079d57600080fd5b81019080805190602001909291905050505050505600a165627a7a723058201a8fbb91caf5be4f28a2031648f5ffad43c4b45328b81ab9aec5530efa8435ba0029",
  "source": "pragma solidity ^0.4.24;\n\nimport \"./Owner.sol\";\nimport \"./HotDogToken.sol\";\n\ncontract Logic is Owner{\n    address private _tokenAddress;\n    uint256 eth = 10 ** 15;\n    uint256 test;\n    bool tf = false;\n\n    function multiSend(address recipient, address other1, address other2, uint256 amount) public payable returns(bool) {\n        require(_tokenAddress != address(0), \"zero address\");\n        (bool success) = address(_tokenAddress).call(abi.encodeWithSignature(\"transfer(address,uint256)\", recipient, amount));\n        other1.transfer(eth);\n        other2.transfer(eth);\n        if(!success) {\n            revert(\"wrong\");\n        }\n\n        return (success);\n    }\n\n    function send(address recipient, uint256 amount) public {\n        HotDogToken(_tokenAddress).transferFrom(msg.sender, recipient, amount);\n    }\n}",
  "sourcePath": "/Users/jang-yonghyeon/workspace/blockchain/klaytn/hotdog_token_ver2/contracts/Logic.sol",
  "compiler": {
    "name": "solc",
    "version": "0.4.25+commit.59dbf8f1.Emscripten.clang"
  },
  "schemaVersion": "2.0.2",
  "updatedAt": "2019-07-25T01:59:12.411Z"
}