{
  "contractName": "Proxy",
  "abi": [
    {
      "constant": true,
      "inputs": [],
      "name": "_proxyStorageAddress",
      "outputs": [
        {
          "name": "",
          "type": "address"
        }
      ],
      "payable": false,
      "stateMutability": "view",
      "type": "function"
    },
    {
      "inputs": [
        {
          "name": "proxyStorageAddress",
          "type": "address"
        }
      ],
      "payable": false,
      "stateMutability": "nonpayable",
      "type": "constructor"
    },
    {
      "payable": true,
      "stateMutability": "payable",
      "type": "fallback"
    },
    {
      "constant": true,
      "inputs": [],
      "name": "getGods",
      "outputs": [
        {
          "name": "",
          "type": "address[]"
        }
      ],
      "payable": false,
      "stateMutability": "view",
      "type": "function"
    },
    {
      "constant": true,
      "inputs": [
        {
          "name": "feeAmount",
          "type": "uint256[]"
        }
      ],
      "name": "test",
      "outputs": [
        {
          "name": "",
          "type": "uint256[]"
        }
      ],
      "payable": false,
      "stateMutability": "view",
      "type": "function"
    }
  ],
  "bytecode": "0x608060405234801561001057600080fd5b5060405160208061060a83398101806040528101908080519060200190929190505050600073ffffffffffffffffffffffffffffffffffffffff168173ffffffffffffffffffffffffffffffffffffffff16141515156100d8576040517f08c379a000000000000000000000000000000000000000000000000000000000815260040180806020018281038252600c8152602001807f7a65726f2061646472657373000000000000000000000000000000000000000081525060200191505060405180910390fd5b806000806101000a81548173ffffffffffffffffffffffffffffffffffffffff021916908373ffffffffffffffffffffffffffffffffffffffff160217905550506104e2806101286000396000f300608060405260043610610057576000357c0100000000000000000000000000000000000000000000000000000000900463ffffffff1680632671c1fd146101e75780639ed99fc914610253578063ca160684146102aa575b60008060009054906101000a900473ffffffffffffffffffffffffffffffffffffffff1673ffffffffffffffffffffffffffffffffffffffff1663abd108ba6040518163ffffffff167c0100000000000000000000000000000000000000000000000000000000028152600401602060405180830381600087803b1580156100de57600080fd5b505af11580156100f2573d6000803e3d6000fd5b505050506040513d602081101561010857600080fd5b81019080805190602001909291905050509050600073ffffffffffffffffffffffffffffffffffffffff168173ffffffffffffffffffffffffffffffffffffffff16141515156101c0576040517f08c379a00000000000000000000000000000000000000000000000000000000081526004018080602001828103825260148152602001807f6572726f72203a207a65726f206164647265737300000000000000000000000081525060200191505060405180910390fd5b60405136600082376000803683855af43d806000843e81600081146101e3578184f35b8184fd5b3480156101f357600080fd5b506101fc610365565b6040518080602001828103825283818151815260200191508051906020019060200280838360005b8381101561023f578082015181840152602081019050610224565b505050509050019250505060405180910390f35b34801561025f57600080fd5b50610268610487565b604051808273ffffffffffffffffffffffffffffffffffffffff1673ffffffffffffffffffffffffffffffffffffffff16815260200191505060405180910390f35b3480156102b657600080fd5b5061030e600480360381019080803590602001908201803590602001908080602002602001604051908101604052809392919081815260200183836020028082843782019150505050505091929192905050506104ac565b6040518080602001828103825283818151815260200191508051906020019060200280838360005b83811015610351578082015181840152602081019050610336565b505050509050019250505060405180910390f35b6060806000809054906101000a900473ffffffffffffffffffffffffffffffffffffffff1673ffffffffffffffffffffffffffffffffffffffff16632671c1fd6040518163ffffffff167c0100000000000000000000000000000000000000000000000000000000028152600401600060405180830381600087803b1580156103ed57600080fd5b505af1158015610401573d6000803e3d6000fd5b505050506040513d6000823e3d601f19601f82011682018060405250602081101561042b57600080fd5b81019080805164010000000081111561044357600080fd5b8281019050602081018481111561045957600080fd5b815185602082028301116401000000008211171561047657600080fd5b505092919050505090508091505090565b6000809054906101000a900473ffffffffffffffffffffffffffffffffffffffff1681565b60608190509190505600a165627a7a72305820b97d9ad5501b3d61d53d82114cc7b0474eb3c2659eb92ddec427d0bafb187b6b0029",
  "source": "pragma solidity ^0.4.24;\n\nimport \"./SafeMath.sol\";\nimport \"./ProxyStorage.sol\";\n\ncontract Proxy {\n    address public _proxyStorageAddress;\n\n    constructor(address proxyStorageAddress) public {\n        require(proxyStorageAddress != address(0), \"zero address\");\n        _proxyStorageAddress = proxyStorageAddress;\n    }\n\n    function () external payable {\n        address logicAddress = ProxyStorage(_proxyStorageAddress).getLogicAddress();\n        require(logicAddress != address(0), \"error : zero address\");\n        \n        assembly {\n            let ptr := mload(0x40)\n            calldatacopy(ptr, 0, calldatasize)\n            let result := delegatecall(gas, logicAddress, ptr, calldatasize, 0, 0)\n            let size := returndatasize\n            returndatacopy(ptr, 0, size)\n\n            switch result\n            case 0 { revert(ptr, size) }\n            default { return(ptr, size) }\n        }\n    }\n\n    function getGods() public view returns(address[]) {\n        address[] memory _god = ProxyStorage(_proxyStorageAddress).getGods();\n        return _god;\n    }\n\n    function test(uint256[] feeAmount) public view returns(uint256[]) {\n        return feeAmount;\n    }\n}",
  "sourcePath": "/Users/jang-yonghyeon/workspace/blockchain/klaytn/hotdog_token_ver2/contracts/Proxy.sol",
  "compiler": {
    "name": "solc",
    "version": "0.4.25+commit.59dbf8f1.Emscripten.clang"
  },
  "schemaVersion": "2.0.2",
  "updatedAt": "2019-07-29T06:34:31.530Z"
}