{
  "contractName": "Storage",
  "abi": [
    {
      "constant": true,
      "inputs": [],
      "name": "DECIMALS",
      "outputs": [
        {
          "name": "",
          "type": "uint8"
        }
      ],
      "payable": false,
      "stateMutability": "view",
      "type": "function"
    },
    {
      "constant": true,
      "inputs": [],
      "name": "INITIAL_SUPPLY",
      "outputs": [
        {
          "name": "",
          "type": "uint256"
        }
      ],
      "payable": false,
      "stateMutability": "view",
      "type": "function"
    }
  ],
  "bytecode": "0x608060405234801561001057600080fd5b5060e78061001f6000396000f3006080604052600436106049576000357c0100000000000000000000000000000000000000000000000000000000900463ffffffff1680632e0f262514604e5780632ff2e9dc14607c575b600080fd5b348015605957600080fd5b50606060a4565b604051808260ff1660ff16815260200191505060405180910390f35b348015608757600080fd5b50608e60a9565b6040518082815260200191505060405180910390f35b601281565b601260ff16600a0a6402540be40002815600a165627a7a72305820939ff7aa78244a1d5b26610f1a77543d86ca6dd55f88abf71596dccef140f4f00029",
  "source": "pragma solidity ^0.4.24;\n\nimport \"./SafeMath.sol\";\n\ncontract Storage {\n    using SafeMath for uint256;\n\n    mapping (address => uint256) private _balances;\n\n    mapping (address => mapping (address => uint256)) private _allowances;\n\n    uint256 private _totalSupply;\n\n    string private _name;\n    string private _symbol;\n    uint8 private _decimals;\n\n    uint8 public constant DECIMALS = 18;\n    uint256 public constant INITIAL_SUPPLY = 10000000000 * (10 ** uint256(DECIMALS));\n}\n\ncontract Proxy is Storage {\n    address public targetAddress;\n\n    event FallbackCalledEvent(bytes data);\n\n    function setTargetAddress(address _address) public {\n        require(_address != address(0), \"error : zero address\");\n        targetAddress = _address;\n    }\n\n    function getTargetAddress() public view returns (address) {\n        return targetAddress;\n    }\n\n    function () external payable {\n        emit FallbackCalledEvent(msg.data);\n        address contractAddr = targetAddress;\n        require(contractAddr != address(0), \"error : zero address\");\n        \n        assembly {\n            let ptr := mload(0x40)\n            calldatacopy(ptr, 0, calldatasize)\n            let result := delegatecall(gas, contractAddr, ptr, calldatasize, 0, 0)\n            let size := returndatasize\n            returndatacopy(ptr, 0, size)\n\n            switch result\n            case 0 { revert(ptr, size) }\n            default { return(ptr, size) }\n        }\n    }\n}",
  "sourcePath": "/Users/jang-yonghyeon/workspace/blockchain/klaytn/hotdog_token/contracts/Proxy.sol",
  "compiler": {
    "name": "solc",
    "version": "0.4.25+commit.59dbf8f1.Emscripten.clang"
  },
  "schemaVersion": "2.0.2",
  "updatedAt": "2019-07-12T00:56:53.308Z"
}